{
  "_format": "hh-sol-artifact-1",
  "contractName": "KeyManager",
  "sourceName": "contracts/key-manager.sol",
  "abi": [
    {
      "inputs": [],
      "stateMutability": "nonpayable",
      "type": "constructor"
    },
    {
      "anonymous": false,
      "inputs": [
        {
          "indexed": false,
          "internalType": "bytes32",
          "name": "keyHash",
          "type": "bytes32"
        },
        {
          "indexed": false,
          "internalType": "uint256",
          "name": "activationDate",
          "type": "uint256"
        }
      ],
      "name": "KeyActivated",
      "type": "event"
    },
    {
      "anonymous": false,
      "inputs": [
        {
          "indexed": false,
          "internalType": "bytes32",
          "name": "keyHash",
          "type": "bytes32"
        }
      ],
      "name": "KeyCreated",
      "type": "event"
    },
    {
      "anonymous": false,
      "inputs": [
        {
          "indexed": false,
          "internalType": "bytes32",
          "name": "keyHash",
          "type": "bytes32"
        },
        {
          "indexed": false,
          "internalType": "uint256",
          "name": "expiryDate",
          "type": "uint256"
        }
      ],
      "name": "KeyExpirySet",
      "type": "event"
    },
    {
      "inputs": [
        {
          "internalType": "string",
          "name": "key",
          "type": "string"
        }
      ],
      "name": "activateKey",
      "outputs": [],
      "stateMutability": "nonpayable",
      "type": "function"
    },
    {
      "inputs": [
        {
          "internalType": "string",
          "name": "key",
          "type": "string"
        }
      ],
      "name": "createKey",
      "outputs": [],
      "stateMutability": "nonpayable",
      "type": "function"
    },
    {
      "inputs": [
        {
          "internalType": "string",
          "name": "key",
          "type": "string"
        }
      ],
      "name": "getKeyInfo",
      "outputs": [
        {
          "internalType": "enum KeyManager.Status",
          "name": "",
          "type": "uint8"
        },
        {
          "internalType": "uint256",
          "name": "activationDate",
          "type": "uint256"
        },
        {
          "internalType": "uint256",
          "name": "expiryDate",
          "type": "uint256"
        }
      ],
      "stateMutability": "view",
      "type": "function"
    },
    {
      "inputs": [],
      "name": "owner",
      "outputs": [
        {
          "internalType": "address",
          "name": "",
          "type": "address"
        }
      ],
      "stateMutability": "view",
      "type": "function"
    }
  ],
  "bytecode": "0x608060405234801561001057600080fd5b50336000806101000a81548173ffffffffffffffffffffffffffffffffffffffff021916908373ffffffffffffffffffffffffffffffffffffffff160217905550610cfe806100606000396000f3fe608060405234801561001057600080fd5b506004361061004c5760003560e01c806311e984c4146100515780631b774ee9146100835780638da5cb5b1461009f578063a15cdafe146100bd575b600080fd5b61006b60048036038101906100669190610853565b6100d9565b60405161007a9392919061092c565b60405180910390f35b61009d60048036038101906100989190610853565b610215565b005b6100a76104ca565b6040516100b491906109a4565b60405180910390f35b6100d760048036038101906100d29190610853565b6104ee565b005b600080600080846040516020016100f09190610a30565b6040516020818303038152906040528051906020012090506001600082815260200190815260200160002060000160009054906101000a900460ff1661016b576040517f08c379a000000000000000000000000000000000000000000000000000000000815260040161016290610aa4565b60405180910390fd5b6000600160008381526020019081526020016000206040518060800160405290816000820160009054906101000a900460ff161515151581526020016000820160019054906101000a900460ff1660018111156101cb576101ca61089c565b5b60018111156101dd576101dc61089c565b5b815260200160018201548152602001600282015481525050905080602001518160400151826060015194509450945050509193909250565b60008054906101000a900473ffffffffffffffffffffffffffffffffffffffff1673ffffffffffffffffffffffffffffffffffffffff163373ffffffffffffffffffffffffffffffffffffffff16146102a3576040517f08c379a000000000000000000000000000000000000000000000000000000000815260040161029a90610b10565b60405180910390fd5b6000816040516020016102b69190610a30565b6040516020818303038152906040528051906020012090506001600082815260200190815260200160002060000160009054906101000a900460ff16610331576040517f08c379a000000000000000000000000000000000000000000000000000000000815260040161032890610aa4565b60405180910390fd5b600060018111156103455761034461089c565b5b6001600083815260200190815260200160002060000160019054906101000a900460ff16600181111561037b5761037a61089c565b5b146103bb576040517f08c379a00000000000000000000000000000000000000000000000000000000081526004016103b290610b7c565b60405180910390fd5b600180600083815260200190815260200160002060000160016101000a81548160ff021916908360018111156103f4576103f361089c565b5b02179055504260016000838152602001908152602001600020600101819055506301e13380426104249190610bcb565b60016000838152602001908152602001600020600201819055507f7c963b075ae6d9ecf8049a5082ddf91cfa4ce478e7e9d7e4c3c7e86bbb49af2f814260405161046f929190610c18565b60405180910390a17f756281ebc324baf6a9a65d6d72147eb660dbdcfda346feb409e5e31116614ba08160016000848152602001908152602001600020600201546040516104be929190610c18565b60405180910390a15050565b60008054906101000a900473ffffffffffffffffffffffffffffffffffffffff1681565b60008054906101000a900473ffffffffffffffffffffffffffffffffffffffff1673ffffffffffffffffffffffffffffffffffffffff163373ffffffffffffffffffffffffffffffffffffffff161461057c576040517f08c379a000000000000000000000000000000000000000000000000000000000815260040161057390610b10565b60405180910390fd5b60008160405160200161058f9190610a30565b6040516020818303038152906040528051906020012090506001600082815260200190815260200160002060000160009054906101000a900460ff161561060b576040517f08c379a000000000000000000000000000000000000000000000000000000000815260040161060290610c8d565b60405180910390fd5b6040518060800160405280600115158152602001600060018111156106335761063261089c565b5b81526020016000815260200160008152506001600083815260200190815260200160002060008201518160000160006101000a81548160ff02191690831515021790555060208201518160000160016101000a81548160ff021916908360018111156106a2576106a161089c565b5b021790555060408201518160010155606082015181600201559050507f375ceee3c0fd5025e9587edd7555b088a01846cfd204410f33eb940db932321e816040516106ed9190610cad565b60405180910390a15050565b6000604051905090565b600080fd5b600080fd5b600080fd5b600080fd5b6000601f19601f8301169050919050565b7f4e487b7100000000000000000000000000000000000000000000000000000000600052604160045260246000fd5b61076082610717565b810181811067ffffffffffffffff8211171561077f5761077e610728565b5b80604052505050565b60006107926106f9565b905061079e8282610757565b919050565b600067ffffffffffffffff8211156107be576107bd610728565b5b6107c782610717565b9050602081019050919050565b82818337600083830152505050565b60006107f66107f1846107a3565b610788565b90508281526020810184848401111561081257610811610712565b5b61081d8482856107d4565b509392505050565b600082601f83011261083a5761083961070d565b5b813561084a8482602086016107e3565b91505092915050565b60006020828403121561086957610868610703565b5b600082013567ffffffffffffffff81111561088757610886610708565b5b61089384828501610825565b91505092915050565b7f4e487b7100000000000000000000000000000000000000000000000000000000600052602160045260246000fd5b600281106108dc576108db61089c565b5b50565b60008190506108ed826108cb565b919050565b60006108fd826108df565b9050919050565b61090d816108f2565b82525050565b6000819050919050565b61092681610913565b82525050565b60006060820190506109416000830186610904565b61094e602083018561091d565b61095b604083018461091d565b949350505050565b600073ffffffffffffffffffffffffffffffffffffffff82169050919050565b600061098e82610963565b9050919050565b61099e81610983565b82525050565b60006020820190506109b96000830184610995565b92915050565b600081519050919050565b600081905092915050565b60005b838110156109f35780820151818401526020810190506109d8565b60008484015250505050565b6000610a0a826109bf565b610a1481856109ca565b9350610a248185602086016109d5565b80840191505092915050565b6000610a3c82846109ff565b915081905092915050565b600082825260208201905092915050565b7f4b45595f444f45535f4e4f545f45584953540000000000000000000000000000600082015250565b6000610a8e601283610a47565b9150610a9982610a58565b602082019050919050565b60006020820190508181036000830152610abd81610a81565b9050919050565b7f4e4f545f415554484f52495a4544000000000000000000000000000000000000600082015250565b6000610afa600e83610a47565b9150610b0582610ac4565b602082019050919050565b60006020820190508181036000830152610b2981610aed565b9050919050565b7f4b45595f4143544956455f4f525f444f45534e545f4558495354000000000000600082015250565b6000610b66601a83610a47565b9150610b7182610b30565b602082019050919050565b60006020820190508181036000830152610b9581610b59565b9050919050565b7f4e487b7100000000000000000000000000000000000000000000000000000000600052601160045260246000fd5b6000610bd682610913565b9150610be183610913565b9250828201905080821115610bf957610bf8610b9c565b5b92915050565b6000819050919050565b610c1281610bff565b82525050565b6000604082019050610c2d6000830185610c09565b610c3a602083018461091d565b9392505050565b7f4b45595f414c52454144595f4558495354530000000000000000000000000000600082015250565b6000610c77601283610a47565b9150610c8282610c41565b602082019050919050565b60006020820190508181036000830152610ca681610c6a565b9050919050565b6000602082019050610cc26000830184610c09565b9291505056fea2646970667358221220daeaa8d30ec73c904ddebab9ef1dc8cdc79550f5f7a4edb9e90536cbfb98008d64736f6c63430008140033",
  "linkReferences": {},
  "deployedLinkReferences": {}
}